:100000000C9438010C9469010C9469010C946901F9
:100010000C9469010C9469010C9469010C946901B8
:100020000C9469010C9469010C9469010C946901A8
:100030000C9469010C9469010C9469010C94690198
:100040000C9469010C94DF150C9469010C946901FE
:100050000C9469010C9469010C9469010C944B1483
:100060000C9469010C941F150C94F5140C946901FF
:100070000C9469010C9469010C9469010C94690158
:100080000C94B1150C9469010C9469010C946901EC
:100090000C94BF140C9495140C9469010C94690190
:1000A0000C9469010C9469010C9483150C946901FA
:1000B0000C9469010C9469010C9469010C94551518
:1000C0000C9469010C9469010C9469010C94690108
:1000D0000C9469010C9469010C9469010C946901F8
:1000E0000C9469010C94E3010C94C5010C94D901A2
:1000F0000C946D030C94F1010C945D190C94F001B7
:100100000C94E7010C9421030C9412030C940D162B
:100110000C94CB010C94CF010C94B6010C94B0015B
:100120000C94FC030C94BA010C94EB010C94AF03F7
:100130000C94C2010C94D5010C94DD010C945F0366
:100140000C94E5020C94BE010C94F5010000210012
:10015000240027002A002D00300033000101000098
:10016000040107010A0100002200250028002B00DD
:100170002E003100340002010000050108010B01CE
:10018000000020002300260029002C002F00320050
:100190000001000003010601090105050505070529
:1001A00008080808020202020A0A080804040404F3
:1001B000010101010101010103030303030303031F
:1001C000040707070C0C0C0C0C0C0C0C02020202AE
:1001D00006060606060606060B0B0B0B0B0B0B0B97
:1001E0000102102020080810204010204080020149
:1001F000020108040201010204081020408080402E
:10020000201008040201800402018040201008042C
:1002100002010804020101020408102040800102CA
:1002200004081020408000000A0B02090C0D0E0883
:1002300007030401000000000000000000000000AF
:1002400000000000000000000000000000000000AE
:10025000000012111000000000000000000000006B
:100260000000000000000000000000000D165D19F5
:1002700011241FBECFEFD1E2DEBFCDBF00E00CBF27
:1002800013E0A0E0B2E0ECEAF8E300E00BBF02C04C
:1002900007900D92A43DB107D9F726E0A4EDB3E095
:1002A00001C01D92AA36B207E1F711E0C7E3D1E021
:1002B00000E006C021970109802FFE010E941D1A4F
:1002C000C633D10780E00807A9F70E9445170C94B0
:1002D000441C0C940000FC01A089B18982E08C933D
:1002E000A485B5851C92A685B7858FEC8C93108E5E
:1002F000A489B58986E08C93A289B3898C918061A9
:100300008C93A289B3898C9188608C93A289B389DC
:100310008C9180688C930288F389E02D80818F7D99
:10032000808308958150823108F05AC0E82FF0E0B0
:100330008827E256FE4F8F4F0C941D1ABE01C20152
:10034000B001B601BA01F001C501CB01CF01D50161
:10035000D901DD01E301E701F001EB01F101F50154
:10036000809180008F778093800008958091800035
:100370008F7DF9CF80918000877FF5CF84B58F770F
:1003800084BD089584B58F7DFBCF8091B0008F77B9
:100390008093B00008958091B0008F7DF9CF809157
:1003A00090008F77809390000895809190008F7DCA
:1003B000F9CF80919000877FF5CF8091A0008F7753
:1003C0008093A00008958091A0008F7DF9CF809147
:1003D000A000877FF5CF809120018F778093200147
:1003E0000895809120018F7DF9CF80912001877F32
:1003F000F5CFCF93DF93282F30E0F901EA5DFD4F71
:100400008491F901E052FE4FD491F901E656FE4F76
:10041000C491CC23A1F081110E949201EC2FF0E055
:10042000EE0FFF1FE058FE4FA591B491EC91ED2324
:1004300081E090E009F480E0DF91CF91089580E0C1
:1004400090E0FACF1F93CF93DF93282F30E0F9018C
:10045000EA5DFD4F8491F901E052FE4FD491F9011C
:10046000E656FE4FC491CC23A9F0162F81110E94AD
:100470009201EC2FF0E0EE0FFF1FEA59FE4FA5911D
:10048000B4918FB7F894EC91111108C0D095DE2388
:10049000DC938FBFDF91CF911F910895DE2BF8CFB2
:1004A000CF93DF9390E0FC01E052FE4F24918656FB
:1004B0009E4FFC0184918823D1F090E0880F991F12
:1004C000FC01E45BFE4FA591B491FC01EA59FE4F9B
:1004D000C591D49161110EC09FB7F8948C91E22F11
:1004E000E0958E238C932881E223E8839FBFDF91E0
:1004F000CF9108958FB7F894EC91E22BEC938FBFD6
:10050000F6CF3FB7F89480910D0490910E04A0911E
:100510000F04B091100426B5A89B05C02F3F19F019
:100520000196A11DB11D3FBFBA2FA92F982F882773
:10053000BC01CD01620F711D811D911D42E0660F4E
:10054000771F881F991F4A95D1F708958F929F9220
:10055000AF92BF92CF92DF92EF92FF924B015C017C
:100560000E9481026B017C010E9481026C197D094D
:100570008E099F09683E734081059105A8F321E02B
:10058000821A9108A108B10888EEC80E83E0D81E2F
:10059000E11CF11C81149104A104B10429F7FF901E
:1005A000EF90DF90CF90BF90AF909F908F90089585
:1005B0002FB7F8946091090470910A0480910B049C
:1005C00090910C042FBF08950895AF92BF92CF92DF
:1005D000DF92EF92FF920F931F93CF93DF936C0103
:1005E0007B018B01040F151FEB015E01AE18BF08E4
:1005F000C017D10759F06991D601ED91FC91019096
:10060000F081E02DC6011995892B79F7C501DF919D
:10061000CF911F910F91FF90EF90DF90CF90BF90FF
:10062000AF900895FC01538D448D252F30E0842F29
:1006300090E0821B930B541710F0CF96089501970A
:100640000895FC01918D828D981761F0A28DAE0FF7
:10065000BF2FB11D5D968C91928D9F5F9F73928F7E
:1006600090E008958FEF9FEF08950F931F93CF931E
:10067000DF93EC010E94D802688779878A879B877D
:10068000CE010E94210397FF15C00E94D802088561
:1006900019852A853B85601B710B820B930B0C819E
:1006A0001D812E813F81601771078207930740F3F8
:1006B0008FEF9FEFDF91CF911F910F910895FC0174
:1006C000918D828D981731F0828DE80FF11D858D07
:1006D00090E008958FEF9FEF0895FC01918D228D9A
:1006E000892F90E0805C9F4F821B91098F7399271F
:1006F000089581E194E00E946D0321E0892B09F4C3
:1007000020E0822F08958EEA94E00E946D0321E09C
:10071000892B09F420E0822F0895FC01A48DA80FF5
:10072000B92FB11DA35ABF4F2C91848D90E0019633
:100730008F739927848FA689B7892C93A089B18953
:100740008C91837080648C93938D848D981306C0F4
:100750000288F389E02D80818F7D80830895EF9258
:10076000FF920F931F93CF93DF93EC0181E0888F6B
:100770009B8D8C8D98131AC0E889F989808185FF3B
:1007800015C09FB7F894EE89FF896083E889F989DD
:1007900080818370806480839FBF81E090E0DF91DF
:1007A000CF911F910F91FF90EF900895F62E0B8D32
:1007B00010E00F5F1F4F0F731127E02E8C8D8E11ED
:1007C0000CC00FB607FCFACFE889F989808185FF54
:1007D000F5CFCE010E948D03F1CFEB8DEC0FFD2FF5
:1007E000F11DE35AFF4FF0829FB7F8940B8FEA890F
:1007F000FB8980818062CFCFCF93DF93EC01888D1E
:100800008823B9F0AA89BB89E889F9898C9185FD8B
:1008100003C0808186FD0DC00FB607FCF7CF8C9119
:1008200085FFF2CF808185FFEDCFCE010E948D0341
:10083000E9CFDF91CF91089580E090E0892B29F0F6
:100840000E94830381110E94000080E090E0892BC8
:1008500029F00E94790381110E94000080E090E05D
:10086000892B49F080E090E0892B29F00E9400005C
:1008700081110E94000080E090E0892B49F080E027
:1008800090E0892B29F00E94000081110C94000057
:100890000895DC01EC91E03390F511968C9111975D
:1008A00028E830E0281B310987FD3395220F331FDC
:1008B000220F331F6217730784F012968C9128E57C
:1008C00032E0281B310987FD3395220F331F220F99
:1008D000331F621773070CF49B0122503109220F5A
:1008E000331F4FB7F8948E2F90E0FC01EE0FFF1FDF
:1008F000E80FF91FE55BFA4F328321834FBF08955C
:100900001F93CF93DF93EC01162F8881803308F07B
:100910004EC061E0812F0E9450028881282F30E074
:10092000F901EE0FFF1FE20FF31FE55BFA4F1F7394
:100930006081607C612B608319821A822CE0622FB7
:100940000E94111A829FB001112430E020E0AB0117
:10095000420F531FFA01EE0FFF1FE40FF51FE55B77
:10096000FA4F908196FD16C02F5F3F4F2C30310516
:1009700071F7813009F51092800082E08093810048
:100980001092850010928400B19A80916F0082606D
:1009900080936F00E8818E2F90E0FC01EE0FFF1F27
:1009A000E80FF91FE55BFA4F8081806480838881BE
:1009B000DF91CF911F910895823061F410929000E1
:1009C00080939100109295001092940088BB8093C0
:1009D0007100E0CF833069F41092A00082E0809330
:1009E000A1001092A5001092A40089BB8093720010
:1009F000D1CF8111CFCF1092200182E080932101CD
:100A000010922501109224018ABB80937300C2CFFB
:100A1000AF92BF92CF92DF92EF92FF920F931F930C
:100A2000CF93DF936B017A01EC01C150DC4F288139
:100A30003CE0389F8001399F100D1124A090DB0508
:100A4000B12C27FF1FC0FB011182108288818F5FAC
:100A5000888388819801280F311D87FD3A95F6011A
:100A60002A153B051CF488818C30C4F1808191816A
:100A7000049680349C4908F473C0F601808191810A
:100A8000049670C088819801280F311D87FD3A9522
:100A90002A153B05DCF68881A801480F511D87FD0A
:100AA0005A95FA01EE0FFF1FE40FF51FE55BFA4FB1
:100AB000808186FFCBCF8881F801E80FF11D87FD8B
:100AC000FA95CF01EE0FFF1FE80FF91FE55BFA4F14
:100AD000808160E08F730E942202B8CF8081918173
:100AE0002881A801420F511D27FD5A959A01FA014C
:100AF000EE0FFF1FE20FF31FE55BFA4F21813281FA
:100B0000820F931FF7019183808388819801280FBA
:100B1000311D87FD3A95F901EE0FFF1FE20FF31F1C
:100B2000E55BFA4F808186FF22C08881080F111D86
:100B300087FD1A95F801EE0FFF1FE00FF11FE55B2F
:100B4000FA4F808161E08F73DF91CF911F910F91F8
:100B5000FF90EF90DF90CF90BF90AF900C94220267
:100B600080E49CE9F701918380838FEF8883DF9194
:100B7000CF911F910F91FF90EF90DF90CF90BF909A
:100B8000AF900895CF93DF93EC010E94D802688361
:100B900079838A839B83DF91CF910895FB01019034
:100BA0000020E9F73197AF01461B570B0C94E50283
:100BB000CF93DF93BC018EEA94E00E94CE05EC0156
:100BC0006EE272E08EEA94E00E94CE058C0F9D1FCB
:100BD000DF91CF9108958F929F92AF92BF92CF9263
:100BE000DF92EF92FF920F931F93CF93DF93CDB7D6
:100BF000DEB7A1970FB6F894DEBF0FBECDBF6C0174
:100C0000990FEE08FF08F7FE4BC06DE28EEA94E004
:100C10000E94AF038C0122273327A9012C193D091B
:100C20004E095F0919A2CE0181967C019AE0892EB6
:100C3000912CA12CB12CCA01B901A50194010E94EB
:100C4000EF19605DF70162937F01211531054105C0
:100C5000510589F790E080E0309729F0BF018EEAD6
:100C600094E00E94CE05080F191F6EE272E08EEA32
:100C700094E00E94CE05800F911FA1960FB6F894C4
:100C8000DEBF0FBECDBFDF91CF911F910F91FF90BF
:100C9000EF90DF90CF90BF90AF909F908F9008958E
:100CA000A701960119A28E010F5D1F4F8AE0C82E81
:100CB000D12CE12CF12CCA01B901A70196010E94A7
:100CC000EF19605DF80162938F012115310541052F
:100CD000510589F7309739F0BF018EEA94E00E9400
:100CE000CE058C01C2CF10E000E0BFCFCF93DF93E1
:100CF000FC0144815581608171818EEA94E00E94FB
:100D0000E502EC016EE272E08EEA94E00E94CE050C
:100D10008C0F9D1FDF91CF910895FC0180819181FF
:100D2000009711F00C947E1960E070E0CB010895FB
:100D3000FC0124813581232B39F421E0FB018081E2
:100D4000882349F020E007C0808191810E94341CF3
:100D500021E0892BB9F7822F0895FC012481358188
:100D6000FB014481558124173507E1F4FC018081A2
:100D70009181FB01608171810097D1F0611571054E
:100D8000A1F4232BC1F0FC01808190E008C0232B4B
:100D900091F0FB01808190E091958195910921E08E
:100DA000892B09F020E0822F08950E94341CF7CF90
:100DB0006115710561F721E0F6CF0F931F93CF9373
:100DC000DF938C01EB01FC01808191810097E1F0C0
:100DD0006881798161157105A9F0428153812C8167
:100DE0003D814217530770F00E943D1C8C819D810C
:100DF000F801958384831D821C82DF91CF911F911E
:100E00000F9108950E94C11A88819981F8019183F8
:100E100080838A819B81938382838C819D8195834A
:100E20008483198218821B821A82E5CFCF93DF93C5
:100E3000EC0188819981009711F00E94C11A1982F2
:100E400018821D821C821B821A82DF91CF91089525
:100E5000FC0180819181009711F00C94C11A0895D2
:100E60000F931F93CF93DF93EC01888199810097B3
:100E700059F02A813B812617370730F081E0DF9156
:100E8000CF911F910F9108958B016F5F7F4F0E944B
:100E90004A1B009759F0998388831B830A832C810E
:100EA0003D81232B59F7FC011082E8CF80E0E7CF8A
:100EB000EF92FF920F931F93CF93DF93611571050C
:100EC00041F480E0DF91CF911F910F91FF90EF905F
:100ED000089541155105B1F07B01EC010C811D8194
:100EE000040F151FB8010E943007882351F3288191
:100EF00039818C819D81B701820F931F0E943D1C17
:100F00001D830C8381E0DECFEF92FF920F931F933E
:100F1000CF93DF93EC017B018A01BA010E94300775
:100F200081110BC0CE010E941607CE01DF91CF9137
:100F30001F910F91FF90EF9008951D830C83B701CF
:100F4000888199810E943D1CF0CFCF93DF93EC0103
:100F5000FB018617970749F0608171816115710562
:100F600041F0448155810E948407CE01DF91CF91E9
:100F700008950E941607F9CFFC0111821082138296
:100F8000128215821482FB0101900020E9F731974B
:100F9000AF01461B570B0C948407AF92BF92CF92C0
:100FA000DF92EF92FF920F931F93CF93DF937C0119
:100FB0006B015A0189012417350720F48B2D590143
:100FC000042F182F60E372E0C7010E94BC07D6010E
:100FD0001496CD91DC91AC16BD0620F50C171D07BB
:100FE00008F4E801D601ED91FC911197EC0FFD1F7B
:100FF000108110826D917C916A0D7B1D61157105C8
:10100000E9F0FB0101900020E9F73197AF01461BA1
:10101000570BC7010E948407F60180819181C80F98
:10102000D91F1883C701DF91CF911F910F91FF90B6
:10103000EF90DF90CF90BF90AF900895C7010E94CE
:101040001607EACFEF92FF920F931F93CF93DF9390
:101050001F921F92CDB7DEB78C017B0160E372E077
:101060000E94BC07C7010E94350397FD0BC089830E
:101070001A8241E050E0BE016F5F7F4FC8010E94BD
:101080005807F0CFC8010F900F90DF91CF911F91BB
:101090000F91FF90EF9008953F924F925F926F9261
:1010A0007F928F929F92AF92BF92CF92DF92EF92F8
:1010B000FF920F931F93CF93DF93CDB7DEB7C45446
:1010C000D1090FB6F894DEBF0FBECDBF8E010F5F02
:1010D0001F4F80911502882311F40C94281460E3AB
:1010E00072E0CE0145960E94BC0760E372E0CE013B
:1010F0004B960E94BC0760E372E0CE0181960E948D
:10110000BC0760E372E0CE0187960E94BC0760E3F3
:1011100072E0CE018D960E94BC0760E372E0CE01C2
:10112000C3960E94BC0781E194E00E946D03892B65
:10113000D1F361E174E0C8010E94220820E130E0AF
:1011400044E050E0B801CE0109960E94CD07BE01EF
:10115000675F7F4FCE0145960E94DD06CE0109965E
:101160000E942807C8010E942807CE0145960E94C8
:10117000760681E392E00E94D8058EEA94E00E9410
:101180006D03892BD1F36EEA74E0C8010E94220836
:10119000B8018CED95E00E94DD06C8010E94280789
:1011A00060E472E08CED95E00E9498068823E9F0F7
:1011B00081E08093150230901502332011F40C94D5
:1011C0000E14F4E2CF2EF6E0DF2EF12CE12CB60166
:1011D000CE0145960E94AD0626E0C20ED11C8111BB
:1011E0000AC08FEFE81AF80AF2CF1092150281E0D8
:1011F0008093FE03E0CF82E492E00E94D80560E392
:1012000072E0CE0109960E94BC078EEA94E00E942B
:101210006D03892BD1F36EEA74E0C8010E942208A5
:10122000B801CE0109960E94DD06C8010E94280778
:10123000E1E08E2EE2E09E2E5401D12CC12C809153
:10124000050490910604C816D906E4F49FEFC91A64
:10125000D90AA601415051099601BE01675F7F4F2F
:10126000C8010E94CD07C8010E948D062B01F5011F
:10127000619371935F01C8010E942807C2010E9417
:10128000EB05DDCFC701880F991FFC01E651FC4F2C
:101290004081518120910304309104044217530787
:1012A00014F00C94B812FC01EF5FFD4F20813181E6
:1012B0002130310511F00C94B81260E086E00E94F4
:1012C000220261E087E00E94220266E475E083E684
:1012D00096E00E94490481E592E00E94D805CE0183
:1012E0008F5B9F4F0E94C205C12C0E94D802259699
:1012F0004CAC5DAC6EAC7FAC259764197509860962
:1013000097096838734181059105A8F561E174E09A
:10131000C8010E94220820E130E044E050E0B8011A
:10132000CE010F960E94CD07BE01615F7F4FCE01B7
:101330004B960E94DD06CE010F960E942807C80139
:101340000E942807CE014B960E947606BE016B5E76
:101350007F4FCE014B960E94AD0681110EC060E317
:1013600072E0CE014B960E949806D12C811107C0E5
:10137000D32CC12C04C0D12C0DC0D32CC32C60E3C2
:1013800072E0CE014B960E9498068111AECFDD200F
:1013900009F4ABCFA090E803B090E9032CE0A216CB
:1013A000B10434F586E10E94F90181309105D1F450
:1013B0008FEFA81AB80A86E18A9DB0018B9D700D47
:1013C00011246A5B7A4F83E696E00E944904B0924A
:1013D000E903A092E80366E970E080E090E00E94F3
:1013E000A602D8CF892BB1F686E10E94F901FACF87
:1013F0001092E9031092E80389E592E00E94D80573
:1014000088E1DD2009F4B0C5CC2009F4A2C70E9410
:10141000F901009709F0BDC081E08093000282E6E7
:1014200092E00E94D805B0900002BB2009F401C6EA
:101430006E019DE3C90ED11CC6010E94C2050E9427
:10144000D802F6014080518062807380641975096A
:1014500086099709683B7B408105910508F4A1C086
:1014600060E087E00E942202B11066C661E086E07B
:101470000E94220266E475E083E696E00E94490439
:1014800081E592E00E94D805CE01C9960E94C2056E
:10149000F12CE12C0E94D80289AC9AACABACBCAC6C
:1014A000681979098A099B09603A7F40810591058D
:1014B00008F041C081E194E00E946D03892BD1F3D3
:1014C00061E174E0C8010E94220820E130E044E0BC
:1014D00050E0B801CE010F960E94CD07BE01615FBA
:1014E0007F4F8CED95E00E94DD06CE010F960E94A5
:1014F0002807C8010E942807BE01655E7F4F8CED5A
:1015000095E00E94AD0681110AC0BE01635D7F4F68
:101510008CED95E00E94AD06882309F4BBCF8CEDDD
:1015200095E00E9476062FEFE21AF20A82E0E816B2
:10153000F10409F0AFCF60E086E00E942202E09063
:10154000E803F090E9039CE0E916F1040CF003C510
:1015500086E10E94F9018130910509F0F5C4EFEFB1
:10156000EE1AFE0A86E18E9DB0018F9D700D11244A
:101570006A5B7A4F83E696E00E944904F092E903A1
:10158000E092E80366E970E080E090E00E94A60245
:10159000D6CF019709F047CF1092000280E792E082
:1015A00040CF81E194E00E946D03892B09F447CF7D
:1015B00061E174E0C8010E94220820E130E044E0CB
:1015C00050E0B801CE010F960E94CD07BE01615FC9
:1015D0007F4FCE018D960E94DD06CE010F960E94B0
:1015E0002807C8010E942807CE018D960E94760622
:1015F000BE01655E7F4FCE018D960E94AD068111C2
:1016000008C060E372E0CE018D960E9498068823A0
:1016100029F082E892E00E94D80511CF64E2A62E5C
:1016200066E0B62EC501845296406C01B501CE012C
:101630008D960E94AD0696E0A90EB11C882391F309
:10164000F601EE51FA4F6F01188A1F861A8A198A1D
:101650001C8A1B8ABF01CE010F960E94A5074AE093
:10166000B80181E090E00E94A519F80101900020E6
:10167000E9F73197AF01401B510BB801CE010F962E
:101680000E945807811104C0CE010F960E941607D0
:10169000BE01615F7F4FC6010E94A507CE010F9674
:1016A0000E9428078FE892E00E94D805B12CD8CE7E
:1016B000892B09F057C587E10E94F901F9CF1092F3
:1016C000E9031092E80389EA92E00E94D80581E0DC
:1016D00080930002BB24B39446E1A42E80910002C3
:1016E000882309F464C088E10E94F901009709F099
:1016F00047C0B092000282E692E00E94D805809135
:101700000002882359F36CED75E080E090E00E94C0
:10171000A60266E475E080E696E00E94490481EA4C
:1017200092E00E94D80581E194E00E946D03892B2C
:10173000D1F3C090E803D090E9038CE0C816D1043F
:101740006CF587E10E94F9018130910509F59FEF61
:10175000C91AD90AAC9CB001AD9C700D11246A5B0A
:101760007A4F80E696E00E944904D092E903C09245
:10177000E80366E970E080E090E00E94A602D9CF1D
:10178000019709F0BCCF1092000280E792E0B5CF3C
:10179000892B79F687E10E94F901FACF1092E903CB
:1017A0001092E80389EA92E00E94D80597CF60E0A2
:1017B00088E00E942202F701EE0FFF1FE651FC4F66
:1017C0008081918101969183808362EB72E08EEA41
:1017D00094E00E94CE05C7010E94EB0585EB92E0E4
:1017E0000E94D8058EEA94E00E946D03892BD1F304
:1017F0006EEA74E0C8010E942208B8018CED95E001
:101800000E94DD06C8010E9428078FEB92E00E942B
:10181000D8058EEA94E00E946D03892BD1F36EEA1D
:1018200074E0C8010E942208B8018CED95E00E9486
:10183000DD06C8010E9428076BEC72E08CED95E094
:101840000E949806882309F38DEC92E00E94D80547
:1018500061E088E00E94220261E174E0C8010E9418
:101860002208C8010E94280726E1D22ECC24C39466
:1018700061E174E0C8010E94220820E130E044E008
:1018800050E0B801CE010F960E94CD07BE01615F06
:101890007F4FCE0181960E94DD06CE010F960E94F9
:1018A0002807C8010E94280760E372E0CE018196F4
:1018B0000E949806F32C811167C1CE0181960E9487
:1018C00076068EED92E00E94D80587EE92E00E94A7
:1018D000D80560E088E00E94220261E087E00E9473
:1018E000220266E475E080E696E00E94490481EAFF
:1018F00092E00E94D80581E194E00E946D03892B5B
:10190000D1F3E090E803F090E903ECE0EE16F10487
:101910000CF09BC087E10E94F9018130910509F02C
:101920008DC0FFEFEF1AFF0ADE9CB001DF9C700D47
:1019300011246A5B7A4F80E696E00E944904F09297
:10194000E903E092E80366E970E080E090E00E943D
:10195000A602D7CFF1108CCF61E086E00E94220270
:1019600068EB7BE080E090E00E94A60266E475E010
:1019700083E696E00E94490481E592E00E94D80542
:10198000DD24D394CE01C9960E94C205F32C0E9497
:10199000D80249AC5AAC6BAC7CAC641975098609A9
:1019A0009709683873418105910508F005C2F11067
:1019B00030C281E293E00E94D80550E040E060E34D
:1019C00072E0CE0109960E9484078EEA94E00E949C
:1019D0006D03892BD1F36EEA74E0C8010E942208DE
:1019E000B801CE0109960E94DD06C8010E942807B1
:1019F000F12CE12C8091050490910604E816F9067B
:101A00000CF017C3EFEFEE1AFE0AA701415051097F
:101A10009701BE01675F7F4FC8010E94CD07C801D3
:101A20000E948D062B01F401619371934F01C8014F
:101A30000E942807C2010E94EB05DCCF892B09F028
:101A400060CF87E10E94F901F9CF1092E90310926B
:101A5000E80389EA92E00E94D80560E087E00E94EE
:101A60002202109200028091000281118CC088E154
:101A70000E94F901009709F06FC0C092000282E64F
:101A800092E00E94D805809100028111ECCF61E0C4
:101A900087E00E94220268EE73E080E090E00E94FE
:101AA000A60266E475E080E696E00E94490481EAB9
:101AB00092E00E94D80581E194E00E946D03892B99
:101AC000D1F361E174E0C8010E94220820E130E016
:101AD00044E050E0B801CE010F960E94CD07BE0150
:101AE000615F7F4FCE0181960E94DD06CE010F9689
:101AF0000E942807C8010E942807CE0181960E94F3
:101B0000760660E087E00E942202E090E803F09011
:101B1000E9032CE0E216F1046CF587E10E94F9017B
:101B20008130910509F58FEFE81AF80ADE9CB001C3
:101B3000DF9C700D11246A5B7A4F80E696E00E946C
:101B40004904F092E903E092E80366E970E080E07E
:101B500090E00E94A602D9CF019709F094CF10928D
:101B6000000280E792E08DCF892B79F687E10E9411
:101B7000F901FACF1092E9031092E80389EA92E0A2
:101B80000E94D80570CFF12C81EF92E00E94D80519
:101B90008EEA94E00E946D03892BD1F36EEA74E023
:101BA000C8010E942208B8018CED95E00E94DD0674
:101BB000C8010E9428076BEC72E08CED95E00E9452
:101BC0009806882309F4C6CEFF2009F4C5CE60E04C
:101BD00088E00E94220261E087E00E94220266E41F
:101BE00075E080E696E00E9449048DEF92E00E9445
:101BF000D80581E194E00E946D03892BD1F361E166
:101C000074E0C8010E942208B801CE0181960E94AA
:101C1000DD06C8010E94280760E087E00E942202DA
:101C200096E1D92EE090E803F090E9039CE0E916F4
:101C3000F1042CF587E10E94F90181309105C9F486
:101C4000EFEFEE1AFE0ADE9CB001DF9C700D11244E
:101C50006A5B7A4F80E696E00E944904F092E903BD
:101C6000E092E80366E970E080E090E00E94A6025E
:101C7000D9CF892BB9F687E10E94F901FACF1092EA
:101C8000E9031092E80389EA92E00E94D8051092D5
:101C90000002DD24D39486E1C82E809100028111D8
:101CA00086C088E10E94F901009709F069C0D092CE
:101CB000000282E692E00E94D80580910002811124
:101CC000ECCF61E087E00E94220266E475E080E6E6
:101CD00096E00E94490481EA92E00E94D80581E1E1
:101CE00094E00E946D03892BD1F361E174E0C80197
:101CF0000E94220820E130E044E050E0B801CE012B
:101D00000F960E94CD07BE01615F7F4FCE01819685
:101D10000E94DD06CE010F960E942807C8010E948E
:101D20002807CE0181960E94760660E087E00E9437
:101D30002202E090E803F090E903FCE0EF16F104E2
:101D40006CF587E10E94F9018130910509F52FEFCB
:101D5000E21AF20ACE9CB001CF9C700D11246A5B8E
:101D60007A4F80E696E00E944904F092E903E092FF
:101D7000E80366E970E080E090E00E94A602D9CF17
:101D8000019709F09ACF109200028EE093E093CF72
:101D9000892B79F687E10E94F901FACF1092E903C5
:101DA0001092E80389EA92E00E94D80576CF87EE88
:101DB00092E00E94D805D0CDFF2009F4FACDE09042
:101DC000E803F090E9038CE0E816F1040CF08EC013
:101DD00086E10E94F9018130910509F080C09FEFF2
:101DE000E91AF90A86E18E9DB0018F9D700D1124CC
:101DF0006A5B7A4F83E696E00E944904F092E90319
:101E0000E092E80366E970E080E090E00E94A602BC
:101E1000D6CF61E174E0C8010E94220820E130E0E1
:101E200044E050E0B801CE010F960E94CD07BE01FC
:101E3000615F7F4FCE01C3960E94DD06CE010F96F3
:101E40000E942807C8010E942807CE01C3960E945D
:101E50007606BE01655E7F4FCE01C3960E94AD0639
:101E6000882309F494CDE090E803F090E903FCE0C6
:101E7000EF16F10434F586E10E94F90181309105F5
:101E8000D1F42FEFE21AF20A86E18E9DB0018F9D08
:101E9000700D11246A5B7A4F83E696E00E94490434
:101EA000F092E903E092E80366E970E080E090E0F8
:101EB0000E94A602D8CF892BB1F686E10E94F901D3
:101EC000FACF1092E9031092E80389E592E00E94AC
:101ED000D80560E086E00E942202F12C58CD892BC3
:101EE00009F06DCF86E10E94F901F9CF1092E90364
:101EF0001092E80389E592E00E94D80588E10E94EB
:101F0000F9010097B9F4D092000282E692E00E94B3
:101F1000D80564EF71E080E090E00E94A60266E4DC
:101F200075E083E696E00E94490481E592E00E9414
:101F3000D80528CD019709F025CD109200028EE03A
:101F400093E00E94D80535CD892B09F0F8CA86E1C7
:101F50000E94F901F9CF1092E9031092E80382E39D
:101F600093E00E94D80565C00E94F901009709F02E
:101F7000AFC081E08093000282E692E00E94D80523
:101F8000B0900002BB2009F454C06E01FDE3CF0EF7
:101F9000D11CC6010E94C205AB2C0E94D802F601DA
:101FA00040805180628073806419750986099709A1
:101FB000683873418105910510F4A11091C060E06B
:101FC00087E00E942202BE016B5E7F4FCE018796A2
:101FD0000E94AD068111A9C068EC70E080E090E03D
:101FE0000E94A60261E086E00E94220266E475E09B
:101FF00083E696E00E94490481E592E00E94D805BC
:10200000DD24D394CE01C9960E94C205FB2C0E9408
:10201000D80249AC5AAC6BAC7CAC64197509860922
:102020009709683873418105910508F0C4C0F11023
:10203000EFC088E10E94F901009709F0CAC281E06F
:102040008093000282E692E00E94D805D0900002C0
:10205000DD2009F4F0C261E087E00E942202CE0197
:10206000CD960E94C2050E94D80221968CAC9DACF0
:10207000AEACBFAC2197681979098A099B09603A0F
:102080007F408105910508F0ACC281E194E00E9497
:102090006D03892B41F361E174E0C8010E942208BD
:1020A00020E130E044E050E0B801CE010F960E94FC
:1020B000CD07BE01615F7F4FCE0187960E94DD068E
:1020C000CE010F960E942807C8010E942807CBCF97
:1020D000019709F055CF1092000280E792E04ECFB1
:1020E00081E194E00E946D03892B09F456CF61E1F0
:1020F00074E0C8010E94220820E130E044E050E092
:10210000B801CE010F960E94CD07BE01615F7F4FDF
:10211000CE0187960E94DD06CE010F960E94280709
:10212000C8010E942807A12C38CFBE01695D7F4FEE
:10213000CE014B960E94A50761E088E00E94220232
:1021400066E475E080E696E00E94490481EA92E048
:102150000E94D80581E194E00E946D03892BD1F3A0
:1021600056E1B52EC090E803D090E903FCE0CF160D
:10217000D1040CF0A4CA87E10E94F90181309105D5
:1021800009F096CA2FEFC21AD20ABC9CB001BD9CBE
:10219000700D11246A5B7A4F80E696E00E94490434
:1021A000D092E903C092E80366E970E080E090E035
:1021B0000E94A602D7CFFF2009F43BCFE090E803AE
:1021C000F090E903ECE0EE16F1040CF096C086E125
:1021D0000E94F9018130910509F088C0FFEFEF1AE4
:1021E000FF0A86E18E9DB0018F9D700D11246A5B00
:1021F0007A4F83E696E00E944904F092E903E09268
:10220000E80366E970E080E090E00E94A602D6CF85
:1022100061E174E0C8010E94220820E130E044E05E
:1022200050E0B801CE010F960E94CD07BE01615F5C
:102230007F4FCE01C3960E94DD06CE010F960E940D
:102240002807C8010E942807CE01C3960E9476067F
:10225000BE01695D7F4FCE01C3960E94AD06882303
:1022600009F4D5CE60E372E0CE01C3960E949806D1
:102270008111CDCEE090E803F090E9038CE0E81600
:10228000F10434F586E10E94F90181309105D1F421
:102290009FEFE91AF90A86E18E9DB0018F9D700DBE
:1022A00011246A5B7A4F83E696E00E944904F0921B
:1022B000E903E092E80366E970E080E090E00E94C4
:1022C000A602D8CF892BB1F686E10E94F901FACF98
:1022D0001092E9031092E80389E592E00E94D80584
:1022E00060E086E00E942202F12C91CE892B09F059
:1022F00065CF86E10E94F901F9CF1092E9031092AF
:10230000E80389E592E00E94D80588E10E94F9017E
:102310000097B9F4D092000282E692E00E94D805BC
:1023200064EF71E080E090E00E94A60266E475E050
:1023300083E696E00E94490481E592E00E94D80578
:1023400061CE019709F05ECE109200028EE093E01C
:1023500008CE0E94F901009709F091C081E08093B6
:10236000000282E692E00E94D805D090000260E070
:1023700087E0DD2009F4F9C00E94220261E086E0D6
:102380000E94220264EF71E080E090E00E94A602C9
:1023900066E475E083E696E00E94490481E592E0F8
:1023A0000E94D805CC24C394CE01C9960E94C205D0
:1023B000FD2C0E94D80289AC9AACABACBCAC6819BD
:1023C00079098A099B09683873418105910508F0EC
:1023D0005EC0FF2009F42DCE61E174E0C8010E94C7
:1023E000220820E130E044E050E0B801CE010F9631
:1023F0000E94CD07BE01615F7F4FCE01C3960E9450
:10240000DD06CE010F960E942807C8010E9428070A
:10241000CE01C3960E947606BE01655E7F4FCE0157
:10242000C3960E94AD06882321F2E090E803F09065
:10243000E9038CE0E816F1040CF05BC086E10E9431
:10244000F9018130910509F04DC09FEFE91AF90AB1
:1024500086E18E9DB0018F9D700D11246A5B7A4FCD
:1024600083E696E00E944904F092E903E092E803D3
:1024700066E970E080E090E00E94A602D6CF019766
:1024800009F073CF1092000280E792E06CCFFF203A
:1024900009F4CFCDE090E803F090E903ECE0EE160C
:1024A000F104DCF586E10E94F9018130910579F5AE
:1024B000FFEFEF1AFF0A86E18E9DB0018F9D700D30
:1024C00011246A5B7A4F83E696E00E944904F092F9
:1024D000E903E092E80366E970E080E090E00E94A2
:1024E000A602D8CF892B09F0A0CF86E10E94F9017E
:1024F000F9CF1092E9031092E80389E592E00E9477
:10250000D80560E086E00E942202F12C52CF892B90
:1025100009F686E10E94F901FACF1092E9031092C0
:10252000E80389E592E00E94D80588E10E94F9015C
:102530000097B9F4C092000282E692E00E94D805AA
:1025400064EF71E080E090E00E94A60266E475E02E
:1025500083E696E00E94490481E592E00E94D80556
:1025600023CF019709F020CFEFCE0E94220261CD48
:10257000FC01EC52FC4F8081918101969183808314
:1025800069E373E08EEA94E00E94CE05498D5A8D8E
:102590006D897E898EEA94E00E94E50280E493E0F2
:1025A0000E94D80564E573E081E194E00E94CE05C5
:1025B00061E174E0C8010E94220869E573E0C80186
:1025C0000E949806F82EC8010E942807FF2051F3A8
:1025D00030CD019709F03ACD109200028EE093E0E1
:1025E00033CD60E087E00E94220261E086E00E9435
:1025F000220266E475E083E696E00E94490481E5E4
:1026000092E00E94D805CC24C394CE01C9960E94C2
:10261000C205FD2C0E94D80289AC9AACABACBCAC14
:10262000681979098A099B09683873418105910500
:10263000F0F4F11048C061E086E00E94220260E000
:1026400087E00E94220260E088E00E94220281E18D
:1026500094E00E946D03892B09F4D8C061E174E015
:10266000C8010E942208C8010E942807F0CFFF205D
:1026700011F3E090E803F090E9038CE0E816F10430
:102680000CF096C086E10E94F9018130910509F0B5
:1026900088C09FEFE91AF90A86E18E9DB0018F9DEF
:1026A000700D11246A5B7A4F83E696E00E9449041C
:1026B000F092E903E092E80366E970E080E090E0E0
:1026C0000E94A602D6CF61E174E0C8010E942208F0
:1026D00020E130E044E050E0B801CE010F960E94C6
:1026E000CD07BE01615F7F4FCE01C3960E94DD061C
:1026F000CE010F960E942807C8010E942807CE012C
:10270000C3960E947606BE01695D7F4FCE01C396D7
:102710000E94AD06882309F47DCF60E372E0CE010C
:10272000C3960E949806811175CFE090E803F0905F
:10273000E903FCE0EF16F10434F586E10E94F901AB
:1027400081309105D1F42FEFE21AF20A86E18E9DD5
:10275000B0018F9D700D11246A5B7A4F83E696E07D
:102760000E944904F092E903E092E80366E970E010
:1027700080E090E00E94A602D8CF892BB1F686E1D6
:102780000E94F901FACF1092E9031092E80389E55B
:1027900092E00E94D80560E086E00E942202F12CBF
:1027A00039CF892B09F065CF86E10E94F901F9CF75
:1027B0001092E9031092E80389E592E00E94D8059F
:1027C00088E10E94F9010097B9F4C092000282E604
:1027D00092E00E94D80564EF71E080E090E00E94F2
:1027E000A60266E475E083E696E00E94490481E56E
:1027F00092E00E94D80509CF019709F006CF109208
:1028000000028EE093E00E94D80515CF8DE593E09D
:102810000E94D805CE0109960E942807CE01C396D2
:102820000E942807CE018D960E942807CE01879628
:102830000E942807CE0181960E942807CE014B9660
:102840000E942807CE0145960E9428070C9469082B
:102850008091FE03882331F08BE693E00E94D80537
:102860001092FE03CC5BDF4F0FB6F894DEBF0FBEB5
:10287000CDBFDF91CF911F910F91FF90EF90DF902F
:10288000CF90BF90AF909F908F907F906F905F9010
:102890004F903F9008951F920F920FB60F92112400
:1028A0002F933F938F939F93AF93BF93809109048E
:1028B00090910A04A0910B04B0910C04309108048B
:1028C00023E0230F2D3758F50196A11DB11D20934C
:1028D00008048093090490930A04A0930B04B09316
:1028E0000C0480910D0490910E04A0910F04B091FE
:1028F00010040196A11DB11D80930D0490930E0448
:10290000A0930F04B0931004BF91AF919F918F914A
:102910003F912F910F900FBE0F901F90189526E8B2
:10292000230F0296A11DB11DD2CF1F920F920FB699
:102930000F9211240BB60F922F933F934F935F93F7
:102940006F937F938F939F93AF93BF93EF93FF9377
:1029500081E194E00E948D03FF91EF91BF91AF91CF
:102960009F918F917F916F915F914F913F912F91A7
:102970000F900BBE0F900FBE0F901F9018951F92D7
:102980000F920FB60F9211240BB60F922F938F93C5
:102990009F93EF93FF93E0912104F09122048081B3
:1029A000E0912704F091280482FD1DC09081809160
:1029B0002A048F5F8F7320912B04821741F0E091DE
:1029C0002A04F0E0EF5EFB4F958F80932A04FF917D
:1029D000EF919F918F912F910F900BBE0F900FBE93
:1029E0000F901F9018958081F2CF1F920F920FB613
:1029F0000F9211240BB60F922F933F934F935F9337
:102A00006F937F938F939F93AF93BF93EF93FF93B6
:102A10008EEA94E00E948D03FF91EF91BF91AF91F8
:102A20009F918F917F916F915F914F913F912F91E6
:102A30000F900BBE0F900FBE0F901F9018951F9216
:102A40000F920FB60F9211240BB60F922F938F9304
:102A50009F93EF93FF93E091BE04F091BF048081B8
:102A6000E091C404F091C50482FD1DC09081809165
:102A7000C7048F5F8F732091C804821741F0E091E3
:102A8000C704F0E0E255FB4F958F8093C704FF9198
:102A9000EF919F918F912F910F900BBE0F900FBED2
:102AA0000F901F9018958081F2CF1F920F920FB652
:102AB0000F9211240BB60F922F933F934F935F9376
:102AC0006F937F938F939F93AF93BF93EF93FF93F6
:102AD00048E251E064E271E090E080E00E94080585
:102AE000FF91EF91BF91AF919F918F917F916F91E6
:102AF0005F914F913F912F910F900BBE0F900FBEA2
:102B00000F901F9018951F920F920FB60F921124DD
:102B10000BB60F922F933F934F935F936F937F93D7
:102B20008F939F93AF93BF93EF93FF9348EA50E047
:102B300064EA70E083E090E00E940805FF91EF9165
:102B4000BF91AF919F918F917F916F915F914F91C5
:102B50003F912F910F900BBE0F900FBE0F901F90C3
:102B600018951F920F920FB60F9211240BB60F9269
:102B70002F933F934F935F936F937F938F939F9385
:102B8000AF93BF93EF93FF9348E950E064E970E09F
:102B900082E090E00E940805FF91EF91BF91AF9114
:102BA0009F918F917F916F915F914F913F912F9165
:102BB0000F900BBE0F900FBE0F901F9018951F9295
:102BC0000F920FB60F9211240BB60F922F933F93D3
:102BD0004F935F936F937F938F939F93AF93BF9325
:102BE000EF93FF9348E850E064E870E081E090E004
:102BF0000E940805FF91EF91BF91AF919F918F9136
:102C00007F916F915F914F913F912F910F900BBEEC
:102C10000F900FBE0F901F901895109214041092F1
:102C2000130448EE53E060E070E0409315045093C5
:102C30001604609317047093180480E292E0909356
:102C40001204809311042DEC30E030931E04209385
:102C50001D042CEC30E03093200420931F0428EC5A
:102C600030E0309322042093210429EC30E03093AB
:102C70002404209323042AEC30E03093260420938C
:102C800025042EEC30E03093280420932704109282
:102C90002A0410922B0410922C0410922D041092EE
:102CA000B1041092B0044093B2045093B304609303
:102CB000B4047093B5049093AF048093AE0485EC94
:102CC00090E09093BB048093BA0484EC90E09093DE
:102CD000BD048093BC0480EC90E09093BF0480938B
:102CE000BE0481EC90E09093C1048093C00482EC18
:102CF00090E09093C3048093C20486EC90E090939C
:102D0000C5048093C4041092C7041092C8041092A2
:102D1000C9041092CA048091DB05803308F0ADC06D
:102D200091E0980F9093DB058093630690E0FC019F
:102D3000EE0FFF1FE80FF91FE55BFA4F88EB9BE0F2
:102D4000928381838091DB05803308F09AC091E003
:102D5000980F9093DB058093600690E0FC01EE0FE6
:102D6000FF1FE80FF91FE55BFA4F88EB9BE09283AA
:102D7000818360E372E084E296E00E94BC0760E336
:102D800072E08AE296E00E94BC0760E372E080E3B2
:102D900096E00E94BC0760E372E086E396E00E9442
:102DA000BC0760E372E08CE396E00E94BC0760E33E
:102DB00072E082E496E00E94BC0760E372E088E47F
:102DC00096E00E94BC0760E372E08EE496E00E9409
:102DD000BC0760E372E084E596E00E94BC0760E314
:102DE00072E08AE596E00E94BC0760E372E08EE143
:102DF00096E00E94BC0760E372E082EE95E00E94DC
:102E0000BC0760E372E088EE95E00E94BC0760E3D7
:102E100072E08EEE95E00E94BC0760E372E084EF02
:102E200095E00E94BC0760E372E08AEF95E00E94A3
:102E3000BC0760E372E080E096E00E94BC0760E3BC
:102E400072E086E096E00E94BC0760E372E08CE0EE
:102E500096E00E94BC0760E372E082E196E00E9487
:102E6000BC0760E372E088E196E00E94BC0760E383
:102E700072E08CED95E00C94BC078FEF80936306B5
:102E800061CF8FEF8093600674CFCF93DF93CDB780
:102E9000DEB762970FB6F894DEBF0FBECDBF789451
:102EA00084B5826084BD84B5816084BD85B582604F
:102EB00085BD85B5816085BD80916E008160809300
:102EC0006E00109281008091810082608093810069
:102ED0008091810081608093810080918000816079
:102EE000809380008091B10084608093B1008091D4
:102EF000B00081608093B0008091910082608093E7
:102F00009100809191008160809391008091900068
:102F10008160809390008091A10082608093A100E5
:102F20008091A10081608093A1008091A0008160C8
:102F30008093A00080912101826080932101809183
:102F40002101816080932101809120018160809323
:102F5000200180917A00846080937A0080917A00C9
:102F6000826080937A0080917A00816080937A00F9
:102F700080917A00806880937A001092C1008EEA76
:102F800094E00E946B0181E194E00E946B0184E671
:102F900090E0A0E0B0E08093150490931604A09315
:102FA0001704B093180469E070E083E696E00E948D
:102FB00080046AE070E080E696E00E94800460E0B1
:102FC00086E10E94500260E087E10E94500260E0CA
:102FD00088E10E94500261E086E10E94220261E0E5
:102FE00087E10E94220261E088E10E94220261E002
:102FF00086E00E94500261E087E00E94500261E09A
:1030000088E00E94500260E086E00E94220260E0B8
:1030100087E00E94220260E088E00E94220266E4CB
:1030200075E083E696E00E94490460ED77E080E079
:1030300090E00E94A60269E576E083E696E00E94B1
:10304000490460ED77E080E090E00E94A60266E42B
:1030500075E083E696E00E94490468EE73E080E044
:1030600090E00E94A60266E475E080E696E00E9489
:10307000490460ED77E080E090E00E94A60269E5F7
:1030800076E080E696E00E94490460ED77E080E01B
:1030900090E00E94A60266E475E080E696E00E9459
:1030A000490461E873E081E194E00E94CE0561E1AA
:1030B00074E0CE0101960E942208CE0101960E9482
:1030C000280761E086E00E94220286E893E00E94E1
:1030D000D80511E080910704811177C08EEA94E051
:1030E0000E946D03892BD1F36EEA74E0CE01019644
:1030F0000E942208BE016F5F7F4F8CED95E00E9419
:10310000DD06CE0101960E94280760E472E08CED96
:1031100095E00E949806882309F447C084E993E06B
:103120000E94D80581E194E00E946D03892BD1F3C0
:1031300061E174E0CE0107960E94220820E130E0B0
:1031400044E050E0BE01695F7F4FCE0101960E94CE
:10315000CD0762EA73E0CE010D960E94BC074D8157
:103160005E8169817A81CE010D960E945807811196
:1031700004C0CE010D960E941607BE01635F7F4F0B
:103180008EE196E00E94A507CE010D960E942807C9
:10319000CE0101960E942807CE0107960E942807BB
:1031A0008EE196E00E94760695CF6BEC72E08CED96
:1031B00095E00E949806882309F48CCF8AEA93E070
:1031C0000E94D8051093070485CF8EEA94E00E94F0
:1031D0006D03892BD1F36EEA74E0CE0101960E9453
:1031E0002208CE0101960E948D067093060460931A
:1031F0000504CE0101960E9428078EEA94E00E9401
:103200006D03892BD1F36EEA74E0CE0101960E9422
:103210002208CE0101960E948D06709304046093EB
:103220000304CE0101960E94280704E216E0F12C67
:10323000E12C8091050490910604E816F90614F536
:103240008EEA94E00E946D03892BD1F36EEA74E05C
:10325000CE0101960E942208BE016F5F7F4FC80118
:103260000E94DD06CE0101960E942807C8010E9437
:103270007606C7010E94EB058FEFE81AF80A0A5F8D
:103280001F4FD7CF69E576E083E696E00E944904B8
:1032900064EF71E080E090E00E94A60269E576E0CC
:1032A00080E696E00E9449048BEB93E00E94D805EB
:1032B0000E944C080E941C04FBCFCF93DF938CED3F
:1032C00095E00E942807CEE1D6E02697CE010E9425
:1032D000280785E0C23ED807C1F78EE196E00E943C
:1032E0002807C0E6D6E02697CE010E94280786E090
:1032F000C432D807C1F7DF91CF9108951F93FC0125
:1033000099278827BC01E89411911032E9F319300C
:1033100010F01E30C8F31B3251F01D3249F468948E
:1033200006C00E94B019610F711D811D911D119180
:1033300010531A30B0F33EF49095809570956195D6
:103340007F4F8F4F9F4F1F910895BB274A3031F415
:10335000992322F4BDE2909581959F4F0C94C61954
:10336000592F482F372F262F660F771F881F991F39
:10337000660F771F881F991F620F731F841F951F89
:10338000660F771F881F991F0895BB27FB015527DC
:10339000AA27880F991FAA1FA41710F0A41B8395B2
:1033A0005051B9F7A05DAA3308F0A95DA193009729
:1033B00079F7B111B1931192CB010C94DF19DC01B3
:1033C000FC01672F71917723E1F7329704C07C915C
:1033D0006D9370836291AE17BF07C8F30895A1E2A1
:1033E0001A2EAA1BBB1BFD010DC0AA1FBB1FEE1F7F
:1033F000FF1FA217B307E407F50720F0A21BB30BCA
:10340000E40BF50B661F771F881F991F1A9469F745
:1034100060957095809590959B01AC01BD01CF01A1
:103420000895991B79E004C0991F961708F0961B20
:10343000881F7A95C9F780950895EE0FFF1F881FA2
:103440008BBF0790F691E02D19940F931F93CF93A4
:10345000DF938230910510F482E090E0E0916806FD
:10346000F091690630E020E0B0E0A0E0309799F4F8
:103470002115310509F44AC0281B390B24303105C8
:10348000D8F58A819B816115710589F1FB019383D0
:103490008283FE0111C0408151810281138148174E
:1034A0005907E0F04817590799F4109761F0129600
:1034B0000C93129713961C933296CF01DF91CF9104
:1034C0001F910F9108950093680610936906F4CF39
:1034D0002115310551F04217530738F0A901DB01DE
:1034E0009A01BD01DF01F801C1CFEF01F9CF90933F
:1034F000690680936806CDCFFE01E20FF31F81932A
:1035000091932250310939832883D7CF20916606C1
:1035100030916706232B41F4209118023091190253
:1035200030936706209366062091160230911702A9
:103530002115310541F42DB73EB740911A02509143
:103540001B02241B350BE0916606F0916706E2171B
:10355000F307A0F42E1B3F0B2817390778F0AC01B6
:103560004E5F5F4F2417350748F04E0F5F1F509393
:10357000670640936606819391939FCFF0E0E0E069
:103580009CCFCF93DF930097E9F0FC013297138231
:103590001282A0916806B0916906ED0130E020E04A
:1035A0001097A1F420813181820F931F209166062C
:1035B000309167062817390709F061C0F093670654
:1035C000E0936606DF91CF910895EA01CE17DF07F9
:1035D000E8F54A815B819E0141155105B1F7E9018A
:1035E000FB83EA8349915991C40FD51FEC17FD075E
:1035F00061F4808191810296840F951FE90199837E
:103600008883828193819B838A83F0E0E0E0129635
:103610008D919C9113970097B9F52D913C9111973D
:10362000CD010296820F931F2091660630916706A6
:103630002817390739F6309751F51092690610921C
:103640006806B0936706A0936606BCCFD383C28397
:1036500040815181840F951FC817D90761F44E5FCF
:103660005F4F88819981480F591F518340838A8118
:103670009B81938382832115310509F0B0CFF093AC
:103680006906E09368069ECFFD01DC01C0CF13827E
:103690001282D7CF4F925F926F927F928F929F92BA
:1036A000AF92BF92CF92DF92EF92FF920F931F9350
:1036B000CF93DF938C01009799F4CB01DF91CF91E9
:1036C0001F910F91FF90EF90DF90CF90BF90AF9040
:1036D0009F908F907F906F905F904F900C94251AE1
:1036E000FC01E60FF71F9C0122503109E217F30796
:1036F00008F4AEC0D901CD91DC911197C617D70758
:1037000020F1C530D10578F0CE01049786179707D0
:1037100050F0C61BD70B2297C193D1936D937C9326
:10372000CF010E94C11AC801DF91CF911F910F9163
:10373000FF90EF90DF90CF90BF90AF909F908F90D1
:103740007F906F905F904F9008955B01AC1ABD0A17
:103750004C018C0E9D1EA0916806B0916906512CFB
:10376000412CF12CE12C109731F580916606909157
:1037700067068815990509F05CC04616570608F0DB
:1037800058C08091160290911702009741F48DB7AE
:103790009EB740911A0250911B02841B950BE817AB
:1037A000F90708F055C0F0936706E0936606F90143
:1037B00071836083B8CF8D919C91119712966C9014
:1037C000129713967C901397A815B90559F56C01BB
:1037D00042E0C40ED11CCA14DB0420F1AC014A192A
:1037E0005B09DA011296159780F062827382518329
:1037F0004083D9016D937C93E114F10471F0D701FA
:103800001396FC93EE9312978ECF22968C0F9D1FEA
:10381000F90191838083F301EFCFF0936906E09380
:10382000680681CF4816590608F42C017D01D301A2
:103830009ACFCB010E94251A7C01009749F0AE0176
:10384000B8010E942B1CC8010E94C11A87016BCFCE
:1038500010E000E068CFFB01DC0102C001900D9296
:1038600041505040D8F70895FB01DC018D91019043
:1038700080190110D9F3990B0895FB01DC01019027
:103880000D920020E1F7089511E0C7E3D1E000E0D8
:1038900006C0802FFE010E941D1A2196011DC8330B
:0C38A000D10780E00807A9F7F894FFCFDB
:1038AC000101000100010001000100010001000103
:1038BC0000010001000100006A0680000000000009
:1038CC00AF03E5021203FC036D0321035F030D0A32
:1038DC0000436865636B204578702054696D650002
:1038EC0031005570646174652054696D656F757431
:1038FC00004731204F70656E00473120636C6F7349
:10390C0065004D6F75736520696E20747562650076
:10391C004D6F757365206E6F7420696E20747562BF
:10392C0065004F6E6C792031204D6F757365004DBD
:10393C006F7265207468616E2031204D6F757365F0
:10394C00004732204F70656E00473220636C6F73F6
:10395C0065004D3A0053746172744D45443A004D04
:10396C00696E74696D656368636B0030004D696ED8
:10397C002054696D65205265616368656400436C11
:10398C006F73654D454400436F70792044617461D9
:10399C00004D617874696D656368636B004D617887
:1039AC002054696D652052656163686564004D6FD4
:1039BC0075736520206E6F7420696E207475626556
:1039CC000053657373696F6E2046696E6973686521
:1039DC00640047636C6F7365004D6F7573652000F1
:1039EC0020617474656D7074656420746F20656EED
:1039FC00746572004C54470D003F310D00526573D5
:103A0C0074617274204379636C65004578706572DB
:103A1C00696D656E74205465726D696E6174656450
:103A2C00005352410D0041726475696E6F205265EE
:103A3C00616479005363616E204D6F757365204925
:103A4C0044005363616E49443A00426567696E20D5
:103A5C004578706572696D656E7400457870657235
:103A6C00696D656E742054696D6572205374617252
:043A7C007465640009
:00000001FF
